{
  "_format": "hh-sol-artifact-1",
  "contractName": "MutableNFT",
  "sourceName": "contracts/MutableNFT.sol",
  "abi": [
    {
      "inputs": [],
      "stateMutability": "nonpayable",
      "type": "constructor"
    },
    {
      "anonymous": false,
      "inputs": [
        {
          "indexed": true,
          "internalType": "address",
          "name": "owner",
          "type": "address"
        },
        {
          "indexed": true,
          "internalType": "address",
          "name": "approved",
          "type": "address"
        },
        {
          "indexed": true,
          "internalType": "uint256",
          "name": "tokenId",
          "type": "uint256"
        }
      ],
      "name": "Approval",
      "type": "event"
    },
    {
      "anonymous": false,
      "inputs": [
        {
          "indexed": true,
          "internalType": "address",
          "name": "owner",
          "type": "address"
        },
        {
          "indexed": true,
          "internalType": "address",
          "name": "operator",
          "type": "address"
        },
        {
          "indexed": false,
          "internalType": "bool",
          "name": "approved",
          "type": "bool"
        }
      ],
      "name": "ApprovalForAll",
      "type": "event"
    },
    {
      "anonymous": false,
      "inputs": [
        {
          "indexed": true,
          "internalType": "address",
          "name": "previousOwner",
          "type": "address"
        },
        {
          "indexed": true,
          "internalType": "address",
          "name": "newOwner",
          "type": "address"
        }
      ],
      "name": "OwnershipTransferred",
      "type": "event"
    },
    {
      "anonymous": false,
      "inputs": [
        {
          "indexed": false,
          "internalType": "address",
          "name": "account",
          "type": "address"
        }
      ],
      "name": "Paused",
      "type": "event"
    },
    {
      "anonymous": false,
      "inputs": [
        {
          "indexed": true,
          "internalType": "address",
          "name": "from",
          "type": "address"
        },
        {
          "indexed": true,
          "internalType": "address",
          "name": "to",
          "type": "address"
        },
        {
          "indexed": true,
          "internalType": "uint256",
          "name": "tokenId",
          "type": "uint256"
        }
      ],
      "name": "Transfer",
      "type": "event"
    },
    {
      "anonymous": false,
      "inputs": [
        {
          "indexed": false,
          "internalType": "address",
          "name": "account",
          "type": "address"
        }
      ],
      "name": "Unpaused",
      "type": "event"
    },
    {
      "inputs": [
        {
          "internalType": "address",
          "name": "to",
          "type": "address"
        },
        {
          "internalType": "uint256",
          "name": "tokenId",
          "type": "uint256"
        }
      ],
      "name": "approve",
      "outputs": [],
      "stateMutability": "nonpayable",
      "type": "function"
    },
    {
      "inputs": [
        {
          "internalType": "address",
          "name": "owner",
          "type": "address"
        }
      ],
      "name": "balanceOf",
      "outputs": [
        {
          "internalType": "uint256",
          "name": "",
          "type": "uint256"
        }
      ],
      "stateMutability": "view",
      "type": "function"
    },
    {
      "inputs": [
        {
          "internalType": "uint256",
          "name": "tokenId",
          "type": "uint256"
        }
      ],
      "name": "getApproved",
      "outputs": [
        {
          "internalType": "address",
          "name": "",
          "type": "address"
        }
      ],
      "stateMutability": "view",
      "type": "function"
    },
    {
      "inputs": [
        {
          "internalType": "address",
          "name": "owner",
          "type": "address"
        },
        {
          "internalType": "address",
          "name": "operator",
          "type": "address"
        }
      ],
      "name": "isApprovedForAll",
      "outputs": [
        {
          "internalType": "bool",
          "name": "",
          "type": "bool"
        }
      ],
      "stateMutability": "view",
      "type": "function"
    },
    {
      "inputs": [],
      "name": "name",
      "outputs": [
        {
          "internalType": "string",
          "name": "",
          "type": "string"
        }
      ],
      "stateMutability": "view",
      "type": "function"
    },
    {
      "inputs": [],
      "name": "owner",
      "outputs": [
        {
          "internalType": "address",
          "name": "",
          "type": "address"
        }
      ],
      "stateMutability": "view",
      "type": "function"
    },
    {
      "inputs": [
        {
          "internalType": "uint256",
          "name": "tokenId",
          "type": "uint256"
        }
      ],
      "name": "ownerOf",
      "outputs": [
        {
          "internalType": "address",
          "name": "",
          "type": "address"
        }
      ],
      "stateMutability": "view",
      "type": "function"
    },
    {
      "inputs": [],
      "name": "pause",
      "outputs": [],
      "stateMutability": "nonpayable",
      "type": "function"
    },
    {
      "inputs": [],
      "name": "paused",
      "outputs": [
        {
          "internalType": "bool",
          "name": "",
          "type": "bool"
        }
      ],
      "stateMutability": "view",
      "type": "function"
    },
    {
      "inputs": [],
      "name": "renounceOwnership",
      "outputs": [],
      "stateMutability": "nonpayable",
      "type": "function"
    },
    {
      "inputs": [
        {
          "internalType": "address",
          "name": "to",
          "type": "address"
        }
      ],
      "name": "safeMint",
      "outputs": [
        {
          "internalType": "uint256",
          "name": "",
          "type": "uint256"
        }
      ],
      "stateMutability": "nonpayable",
      "type": "function"
    },
    {
      "inputs": [
        {
          "internalType": "address",
          "name": "from",
          "type": "address"
        },
        {
          "internalType": "address",
          "name": "to",
          "type": "address"
        },
        {
          "internalType": "uint256",
          "name": "tokenId",
          "type": "uint256"
        }
      ],
      "name": "safeTransferFrom",
      "outputs": [],
      "stateMutability": "nonpayable",
      "type": "function"
    },
    {
      "inputs": [
        {
          "internalType": "address",
          "name": "from",
          "type": "address"
        },
        {
          "internalType": "address",
          "name": "to",
          "type": "address"
        },
        {
          "internalType": "uint256",
          "name": "tokenId",
          "type": "uint256"
        },
        {
          "internalType": "bytes",
          "name": "_data",
          "type": "bytes"
        }
      ],
      "name": "safeTransferFrom",
      "outputs": [],
      "stateMutability": "nonpayable",
      "type": "function"
    },
    {
      "inputs": [
        {
          "internalType": "address",
          "name": "operator",
          "type": "address"
        },
        {
          "internalType": "bool",
          "name": "approved",
          "type": "bool"
        }
      ],
      "name": "setApprovalForAll",
      "outputs": [],
      "stateMutability": "nonpayable",
      "type": "function"
    },
    {
      "inputs": [
        {
          "internalType": "bytes4",
          "name": "interfaceId",
          "type": "bytes4"
        }
      ],
      "name": "supportsInterface",
      "outputs": [
        {
          "internalType": "bool",
          "name": "",
          "type": "bool"
        }
      ],
      "stateMutability": "view",
      "type": "function"
    },
    {
      "inputs": [],
      "name": "symbol",
      "outputs": [
        {
          "internalType": "string",
          "name": "",
          "type": "string"
        }
      ],
      "stateMutability": "view",
      "type": "function"
    },
    {
      "inputs": [
        {
          "internalType": "uint256",
          "name": "index",
          "type": "uint256"
        }
      ],
      "name": "tokenByIndex",
      "outputs": [
        {
          "internalType": "uint256",
          "name": "",
          "type": "uint256"
        }
      ],
      "stateMutability": "view",
      "type": "function"
    },
    {
      "inputs": [
        {
          "internalType": "address",
          "name": "owner",
          "type": "address"
        },
        {
          "internalType": "uint256",
          "name": "index",
          "type": "uint256"
        }
      ],
      "name": "tokenOfOwnerByIndex",
      "outputs": [
        {
          "internalType": "uint256",
          "name": "",
          "type": "uint256"
        }
      ],
      "stateMutability": "view",
      "type": "function"
    },
    {
      "inputs": [
        {
          "internalType": "uint256",
          "name": "tokenId",
          "type": "uint256"
        }
      ],
      "name": "tokenURI",
      "outputs": [
        {
          "internalType": "string",
          "name": "",
          "type": "string"
        }
      ],
      "stateMutability": "view",
      "type": "function"
    },
    {
      "inputs": [],
      "name": "totalSupply",
      "outputs": [
        {
          "internalType": "uint256",
          "name": "",
          "type": "uint256"
        }
      ],
      "stateMutability": "view",
      "type": "function"
    },
    {
      "inputs": [
        {
          "internalType": "address",
          "name": "from",
          "type": "address"
        },
        {
          "internalType": "address",
          "name": "to",
          "type": "address"
        },
        {
          "internalType": "uint256",
          "name": "tokenId",
          "type": "uint256"
        }
      ],
      "name": "transferFrom",
      "outputs": [],
      "stateMutability": "nonpayable",
      "type": "function"
    },
    {
      "inputs": [
        {
          "internalType": "address",
          "name": "newOwner",
          "type": "address"
        }
      ],
      "name": "transferOwnership",
      "outputs": [],
      "stateMutability": "nonpayable",
      "type": "function"
    },
    {
      "inputs": [],
      "name": "unpause",
      "outputs": [],
      "stateMutability": "nonpayable",
      "type": "function"
    },
    {
      "inputs": [
        {
          "internalType": "address",
          "name": "_owner",
          "type": "address"
        }
      ],
      "name": "walletOfOwner",
      "outputs": [
        {
          "internalType": "uint256[]",
          "name": "",
          "type": "uint256[]"
        }
      ],
      "stateMutability": "view",
      "type": "function"
    }
  ],
  "bytecode": "0x60806040523480156200001157600080fd5b506040518060400160405280600a81526020017f4d757461626c654e4654000000000000000000000000000000000000000000008152506040518060400160405280600681526020017f4d75744e46540000000000000000000000000000000000000000000000000000815250816000908051906020019062000096929190620001c1565b508060019080519060200190620000af929190620001c1565b5050506000600a60006101000a81548160ff021916908315150217905550620000ed620000e1620000f360201b60201c565b620000fb60201b60201c565b620002d6565b600033905090565b6000600a60019054906101000a900473ffffffffffffffffffffffffffffffffffffffff16905081600a60016101000a81548173ffffffffffffffffffffffffffffffffffffffff021916908373ffffffffffffffffffffffffffffffffffffffff1602179055508173ffffffffffffffffffffffffffffffffffffffff168173ffffffffffffffffffffffffffffffffffffffff167f8be0079c531659141344cd1fd0a4f28419497f9722a3daafe3b4186f6b6457e060405160405180910390a35050565b828054620001cf9062000271565b90600052602060002090601f016020900481019282620001f357600085556200023f565b82601f106200020e57805160ff19168380011785556200023f565b828001600101855582156200023f579182015b828111156200023e57825182559160200191906001019062000221565b5b5090506200024e919062000252565b5090565b5b808211156200026d57600081600090555060010162000253565b5090565b600060028204905060018216806200028a57607f821691505b60208210811415620002a157620002a0620002a7565b5b50919050565b7f4e487b7100000000000000000000000000000000000000000000000000000000600052602260045260246000fd5b61396280620002e66000396000f3fe608060405234801561001057600080fd5b50600436106101585760003560e01c80635c975abb116100c357806395d89b411161007c57806395d89b41146103c7578063a22cb465146103e5578063b88d4fde14610401578063c87b56dd1461041d578063e985e9c51461044d578063f2fde38b1461047d57610158565b80635c975abb146103175780636352211e1461033557806370a0823114610365578063715018a6146103955780638456cb591461039f5780638da5cb5b146103a957610158565b80632f745c59116101155780632f745c59146102315780633f4ba83a1461026157806340d097c31461026b57806342842e0e1461029b578063438b6300146102b75780634f6ccce7146102e757610158565b806301ffc9a71461015d57806306fdde031461018d578063081812fc146101ab578063095ea7b3146101db57806318160ddd146101f757806323b872dd14610215575b600080fd5b6101776004803603810190610172919061278a565b610499565b6040516101849190612cc3565b60405180910390f35b6101956104ab565b6040516101a29190612cde565b60405180910390f35b6101c560048036038101906101c091906127dc565b61053d565b6040516101d29190612c3a565b60405180910390f35b6101f560048036038101906101f0919061274e565b6105c2565b005b6101ff6106da565b60405161020c9190612f80565b60405180910390f35b61022f600480360381019061022a9190612648565b6106e7565b005b61024b6004803603810190610246919061274e565b610747565b6040516102589190612f80565b60405180910390f35b6102696107ec565b005b610285600480360381019061028091906125e3565b610872565b6040516102929190612f80565b60405180910390f35b6102b560048036038101906102b09190612648565b61089e565b005b6102d160048036038101906102cc91906125e3565b6108be565b6040516102de9190612ca1565b60405180910390f35b61030160048036038101906102fc91906127dc565b6109b8565b60405161030e9190612f80565b60405180910390f35b61031f610a4f565b60405161032c9190612cc3565b60405180910390f35b61034f600480360381019061034a91906127dc565b610a66565b60405161035c9190612c3a565b60405180910390f35b61037f600480360381019061037a91906125e3565b610b18565b60405161038c9190612f80565b60405180910390f35b61039d610bd0565b005b6103a7610c58565b005b6103b1610cde565b6040516103be9190612c3a565b60405180910390f35b6103cf610d08565b6040516103dc9190612cde565b60405180910390f35b6103ff60048036038101906103fa9190612712565b610d9a565b005b61041b60048036038101906104169190612697565b610db0565b005b610437600480360381019061043291906127dc565b610e12565b6040516104449190612cde565b60405180910390f35b6104676004803603810190610462919061260c565b610eb9565b6040516104749190612cc3565b60405180910390f35b610497600480360381019061049291906125e3565b610f4d565b005b60006104a482611045565b9050919050565b6060600080546104ba906131de565b80601f01602080910402602001604051908101604052809291908181526020018280546104e6906131de565b80156105335780601f1061050857610100808354040283529160200191610533565b820191906000526020600020905b81548152906001019060200180831161051657829003601f168201915b5050505050905090565b6000610548826110bf565b610587576040517f08c379a000000000000000000000000000000000000000000000000000000000815260040161057e90612ec0565b60405180910390fd5b6004600083815260200190815260200160002060009054906101000a900473ffffffffffffffffffffffffffffffffffffffff169050919050565b60006105cd82610a66565b90508073ffffffffffffffffffffffffffffffffffffffff168373ffffffffffffffffffffffffffffffffffffffff16141561063e576040517f08c379a000000000000000000000000000000000000000000000000000000000815260040161063590612f20565b60405180910390fd5b8073ffffffffffffffffffffffffffffffffffffffff1661065d61112b565b73ffffffffffffffffffffffffffffffffffffffff16148061068c575061068b8161068661112b565b610eb9565b5b6106cb576040517f08c379a00000000000000000000000000000000000000000000000000000000081526004016106c290612e40565b60405180910390fd5b6106d58383611133565b505050565b6000600880549050905090565b6106f86106f261112b565b826111ec565b610737576040517f08c379a000000000000000000000000000000000000000000000000000000000815260040161072e90612f40565b60405180910390fd5b6107428383836112ca565b505050565b600061075283610b18565b8210610793576040517f08c379a000000000000000000000000000000000000000000000000000000000815260040161078a90612d20565b60405180910390fd5b600660008473ffffffffffffffffffffffffffffffffffffffff1673ffffffffffffffffffffffffffffffffffffffff168152602001908152602001600020600083815260200190815260200160002054905092915050565b6107f461112b565b73ffffffffffffffffffffffffffffffffffffffff16610812610cde565b73ffffffffffffffffffffffffffffffffffffffff1614610868576040517f08c379a000000000000000000000000000000000000000000000000000000000815260040161085f90612ee0565b60405180910390fd5b610870611531565b565b60008061087f600b6115d3565b905061088b600b6115e1565b61089583826115f7565b80915050919050565b6108b983838360405180602001604052806000815250610db0565b505050565b606060006108cb83610b18565b905060008167ffffffffffffffff81111561090f577f4e487b7100000000000000000000000000000000000000000000000000000000600052604160045260246000fd5b60405190808252806020026020018201604052801561093d5781602001602082028036833780820191505090505b50905060005b828110156109ad576109558582610747565b82828151811061098e577f4e487b7100000000000000000000000000000000000000000000000000000000600052603260045260246000fd5b60200260200101818152505080806109a590613241565b915050610943565b508092505050919050565b60006109c26106da565b8210610a03576040517f08c379a00000000000000000000000000000000000000000000000000000000081526004016109fa90612f60565b60405180910390fd5b60088281548110610a3d577f4e487b7100000000000000000000000000000000000000000000000000000000600052603260045260246000fd5b90600052602060002001549050919050565b6000600a60009054906101000a900460ff16905090565b6000806002600084815260200190815260200160002060009054906101000a900473ffffffffffffffffffffffffffffffffffffffff169050600073ffffffffffffffffffffffffffffffffffffffff168173ffffffffffffffffffffffffffffffffffffffff161415610b0f576040517f08c379a0000000000000000000000000000000000000000000000000000000008152600401610b0690612e80565b60405180910390fd5b80915050919050565b60008073ffffffffffffffffffffffffffffffffffffffff168273ffffffffffffffffffffffffffffffffffffffff161415610b89576040517f08c379a0000000000000000000000000000000000000000000000000000000008152600401610b8090612e60565b60405180910390fd5b600360008373ffffffffffffffffffffffffffffffffffffffff1673ffffffffffffffffffffffffffffffffffffffff168152602001908152602001600020549050919050565b610bd861112b565b73ffffffffffffffffffffffffffffffffffffffff16610bf6610cde565b73ffffffffffffffffffffffffffffffffffffffff1614610c4c576040517f08c379a0000000000000000000000000000000000000000000000000000000008152600401610c4390612ee0565b60405180910390fd5b610c566000611615565b565b610c6061112b565b73ffffffffffffffffffffffffffffffffffffffff16610c7e610cde565b73ffffffffffffffffffffffffffffffffffffffff1614610cd4576040517f08c379a0000000000000000000000000000000000000000000000000000000008152600401610ccb90612ee0565b60405180910390fd5b610cdc6116db565b565b6000600a60019054906101000a900473ffffffffffffffffffffffffffffffffffffffff16905090565b606060018054610d17906131de565b80601f0160208091040260200160405190810160405280929190818152602001828054610d43906131de565b8015610d905780601f10610d6557610100808354040283529160200191610d90565b820191906000526020600020905b815481529060010190602001808311610d7357829003601f168201915b5050505050905090565b610dac610da561112b565b838361177e565b5050565b610dc1610dbb61112b565b836111ec565b610e00576040517f08c379a0000000000000000000000000000000000000000000000000000000008152600401610df790612f40565b60405180910390fd5b610e0c848484846118eb565b50505050565b6060610e1d826110bf565b610e5c576040517f08c379a0000000000000000000000000000000000000000000000000000000008152600401610e5390612f00565b60405180910390fd5b6000610e66611947565b90506000815111610e865760405180602001604052806000815250610eb1565b80610e9084611984565b604051602001610ea1929190612c16565b6040516020818303038152906040525b915050919050565b6000600560008473ffffffffffffffffffffffffffffffffffffffff1673ffffffffffffffffffffffffffffffffffffffff16815260200190815260200160002060008373ffffffffffffffffffffffffffffffffffffffff1673ffffffffffffffffffffffffffffffffffffffff16815260200190815260200160002060009054906101000a900460ff16905092915050565b610f5561112b565b73ffffffffffffffffffffffffffffffffffffffff16610f73610cde565b73ffffffffffffffffffffffffffffffffffffffff1614610fc9576040517f08c379a0000000000000000000000000000000000000000000000000000000008152600401610fc090612ee0565b60405180910390fd5b600073ffffffffffffffffffffffffffffffffffffffff168173ffffffffffffffffffffffffffffffffffffffff161415611039576040517f08c379a000000000000000000000000000000000000000000000000000000000815260040161103090612d60565b60405180910390fd5b61104281611615565b50565b60007f780e9d63000000000000000000000000000000000000000000000000000000007bffffffffffffffffffffffffffffffffffffffffffffffffffffffff1916827bffffffffffffffffffffffffffffffffffffffffffffffffffffffff191614806110b857506110b782611b31565b5b9050919050565b60008073ffffffffffffffffffffffffffffffffffffffff166002600084815260200190815260200160002060009054906101000a900473ffffffffffffffffffffffffffffffffffffffff1673ffffffffffffffffffffffffffffffffffffffff1614159050919050565b600033905090565b816004600083815260200190815260200160002060006101000a81548173ffffffffffffffffffffffffffffffffffffffff021916908373ffffffffffffffffffffffffffffffffffffffff160217905550808273ffffffffffffffffffffffffffffffffffffffff166111a683610a66565b73ffffffffffffffffffffffffffffffffffffffff167f8c5be1e5ebec7d5bd14f71427d1e84f3dd0314c0f7b2291e5b200ac8c7c3b92560405160405180910390a45050565b60006111f7826110bf565b611236576040517f08c379a000000000000000000000000000000000000000000000000000000000815260040161122d90612e00565b60405180910390fd5b600061124183610a66565b90508073ffffffffffffffffffffffffffffffffffffffff168473ffffffffffffffffffffffffffffffffffffffff1614806112b057508373ffffffffffffffffffffffffffffffffffffffff166112988461053d565b73ffffffffffffffffffffffffffffffffffffffff16145b806112c157506112c08185610eb9565b5b91505092915050565b8273ffffffffffffffffffffffffffffffffffffffff166112ea82610a66565b73ffffffffffffffffffffffffffffffffffffffff1614611340576040517f08c379a000000000000000000000000000000000000000000000000000000000815260040161133790612d80565b60405180910390fd5b600073ffffffffffffffffffffffffffffffffffffffff168273ffffffffffffffffffffffffffffffffffffffff1614156113b0576040517f08c379a00000000000000000000000000000000000000000000000000000000081526004016113a790612dc0565b60405180910390fd5b6113bb838383611c13565b6113c6600082611133565b6001600360008573ffffffffffffffffffffffffffffffffffffffff1673ffffffffffffffffffffffffffffffffffffffff168152602001908152602001600020600082825461141691906130f4565b925050819055506001600360008473ffffffffffffffffffffffffffffffffffffffff1673ffffffffffffffffffffffffffffffffffffffff168152602001908152602001600020600082825461146d919061306d565b92505081905550816002600083815260200190815260200160002060006101000a81548173ffffffffffffffffffffffffffffffffffffffff021916908373ffffffffffffffffffffffffffffffffffffffff160217905550808273ffffffffffffffffffffffffffffffffffffffff168473ffffffffffffffffffffffffffffffffffffffff167fddf252ad1be2c89b69c2b068fc378daa952ba7f163c4a11628f55a4df523b3ef60405160405180910390a461152c838383611c23565b505050565b611539610a4f565b611578576040517f08c379a000000000000000000000000000000000000000000000000000000000815260040161156f90612d00565b60405180910390fd5b6000600a60006101000a81548160ff0219169083151502179055507f5db9ee0a495bf2e6ff9c91a7834c1ba4fdd244a5e8aa4e537bd38aeae4b073aa6115bc61112b565b6040516115c99190612c3a565b60405180910390a1565b600081600001549050919050565b6001816000016000828254019250508190555050565b611611828260405180602001604052806000815250611c28565b5050565b6000600a60019054906101000a900473ffffffffffffffffffffffffffffffffffffffff16905081600a60016101000a81548173ffffffffffffffffffffffffffffffffffffffff021916908373ffffffffffffffffffffffffffffffffffffffff1602179055508173ffffffffffffffffffffffffffffffffffffffff168173ffffffffffffffffffffffffffffffffffffffff167f8be0079c531659141344cd1fd0a4f28419497f9722a3daafe3b4186f6b6457e060405160405180910390a35050565b6116e3610a4f565b15611723576040517f08c379a000000000000000000000000000000000000000000000000000000000815260040161171a90612e20565b60405180910390fd5b6001600a60006101000a81548160ff0219169083151502179055507f62e78cea01bee320cd4e420270b5ea74000d11b0c9f74754ebdbfc544b05a25861176761112b565b6040516117749190612c3a565b60405180910390a1565b8173ffffffffffffffffffffffffffffffffffffffff168373ffffffffffffffffffffffffffffffffffffffff1614156117ed576040517f08c379a00000000000000000000000000000000000000000000000000000000081526004016117e490612de0565b60405180910390fd5b80600560008573ffffffffffffffffffffffffffffffffffffffff1673ffffffffffffffffffffffffffffffffffffffff16815260200190815260200160002060008473ffffffffffffffffffffffffffffffffffffffff1673ffffffffffffffffffffffffffffffffffffffff16815260200190815260200160002060006101000a81548160ff0219169083151502179055508173ffffffffffffffffffffffffffffffffffffffff168373ffffffffffffffffffffffffffffffffffffffff167f17307eab39ab6107e8899845ad3d59bd9653f200f220920489ca2b5937696c31836040516118de9190612cc3565b60405180910390a3505050565b6118f68484846112ca565b61190284848484611c83565b611941576040517f08c379a000000000000000000000000000000000000000000000000000000000815260040161193890612d40565b60405180910390fd5b50505050565b60606040518060400160405280601681526020017f687474703a2f2f6c6f63616c686f73743a343030392f00000000000000000000815250905090565b606060008214156119cc576040518060400160405280600181526020017f30000000000000000000000000000000000000000000000000000000000000008152509050611b2c565b600082905060005b600082146119fe5780806119e790613241565b915050600a826119f791906130c3565b91506119d4565b60008167ffffffffffffffff811115611a40577f4e487b7100000000000000000000000000000000000000000000000000000000600052604160045260246000fd5b6040519080825280601f01601f191660200182016040528015611a725781602001600182028036833780820191505090505b5090505b60008514611b2557600182611a8b91906130f4565b9150600a85611a9a919061328a565b6030611aa6919061306d565b60f81b818381518110611ae2577f4e487b7100000000000000000000000000000000000000000000000000000000600052603260045260246000fd5b60200101907effffffffffffffffffffffffffffffffffffffffffffffffffffffffffffff1916908160001a905350600a85611b1e91906130c3565b9450611a76565b8093505050505b919050565b60007f80ac58cd000000000000000000000000000000000000000000000000000000007bffffffffffffffffffffffffffffffffffffffffffffffffffffffff1916827bffffffffffffffffffffffffffffffffffffffffffffffffffffffff19161480611bfc57507f5b5e139f000000000000000000000000000000000000000000000000000000007bffffffffffffffffffffffffffffffffffffffffffffffffffffffff1916827bffffffffffffffffffffffffffffffffffffffffffffffffffffffff1916145b80611c0c5750611c0b82611e1a565b5b9050919050565b611c1e838383611e84565b505050565b505050565b611c328383611f98565b611c3f6000848484611c83565b611c7e576040517f08c379a0000000000000000000000000000000000000000000000000000000008152600401611c7590612d40565b60405180910390fd5b505050565b6000611ca48473ffffffffffffffffffffffffffffffffffffffff16612172565b15611e0d578373ffffffffffffffffffffffffffffffffffffffff1663150b7a02611ccd61112b565b8786866040518563ffffffff1660e01b8152600401611cef9493929190612c55565b602060405180830381600087803b158015611d0957600080fd5b505af1925050508015611d3a57506040513d601f19601f82011682018060405250810190611d3791906127b3565b60015b611dbd573d8060008114611d6a576040519150601f19603f3d011682016040523d82523d6000602084013e611d6f565b606091505b50600081511415611db5576040517f08c379a0000000000000000000000000000000000000000000000000000000008152600401611dac90612d40565b60405180910390fd5b805181602001fd5b63150b7a0260e01b7bffffffffffffffffffffffffffffffffffffffffffffffffffffffff1916817bffffffffffffffffffffffffffffffffffffffffffffffffffffffff191614915050611e12565b600190505b949350505050565b60007f01ffc9a7000000000000000000000000000000000000000000000000000000007bffffffffffffffffffffffffffffffffffffffffffffffffffffffff1916827bffffffffffffffffffffffffffffffffffffffffffffffffffffffff1916149050919050565b611e8f838383612195565b600073ffffffffffffffffffffffffffffffffffffffff168373ffffffffffffffffffffffffffffffffffffffff161415611ed257611ecd8161219a565b611f11565b8173ffffffffffffffffffffffffffffffffffffffff168373ffffffffffffffffffffffffffffffffffffffff1614611f1057611f0f83826121e3565b5b5b600073ffffffffffffffffffffffffffffffffffffffff168273ffffffffffffffffffffffffffffffffffffffff161415611f5457611f4f81612350565b611f93565b8273ffffffffffffffffffffffffffffffffffffffff168273ffffffffffffffffffffffffffffffffffffffff1614611f9257611f918282612493565b5b5b505050565b600073ffffffffffffffffffffffffffffffffffffffff168273ffffffffffffffffffffffffffffffffffffffff161415612008576040517f08c379a0000000000000000000000000000000000000000000000000000000008152600401611fff90612ea0565b60405180910390fd5b612011816110bf565b15612051576040517f08c379a000000000000000000000000000000000000000000000000000000000815260040161204890612da0565b60405180910390fd5b61205d60008383611c13565b6001600360008473ffffffffffffffffffffffffffffffffffffffff1673ffffffffffffffffffffffffffffffffffffffff16815260200190815260200160002060008282546120ad919061306d565b92505081905550816002600083815260200190815260200160002060006101000a81548173ffffffffffffffffffffffffffffffffffffffff021916908373ffffffffffffffffffffffffffffffffffffffff160217905550808273ffffffffffffffffffffffffffffffffffffffff16600073ffffffffffffffffffffffffffffffffffffffff167fddf252ad1be2c89b69c2b068fc378daa952ba7f163c4a11628f55a4df523b3ef60405160405180910390a461216e60008383611c23565b5050565b6000808273ffffffffffffffffffffffffffffffffffffffff163b119050919050565b505050565b6008805490506009600083815260200190815260200160002081905550600881908060018154018082558091505060019003906000526020600020016000909190919091505550565b600060016121f084610b18565b6121fa91906130f4565b90506000600760008481526020019081526020016000205490508181146122df576000600660008673ffffffffffffffffffffffffffffffffffffffff1673ffffffffffffffffffffffffffffffffffffffff168152602001908152602001600020600084815260200190815260200160002054905080600660008773ffffffffffffffffffffffffffffffffffffffff1673ffffffffffffffffffffffffffffffffffffffff168152602001908152602001600020600084815260200190815260200160002081905550816007600083815260200190815260200160002081905550505b6007600084815260200190815260200160002060009055600660008573ffffffffffffffffffffffffffffffffffffffff1673ffffffffffffffffffffffffffffffffffffffff16815260200190815260200160002060008381526020019081526020016000206000905550505050565b6000600160088054905061236491906130f4565b90506000600960008481526020019081526020016000205490506000600883815481106123ba577f4e487b7100000000000000000000000000000000000000000000000000000000600052603260045260246000fd5b906000526020600020015490508060088381548110612402577f4e487b7100000000000000000000000000000000000000000000000000000000600052603260045260246000fd5b906000526020600020018190555081600960008381526020019081526020016000208190555060096000858152602001908152602001600020600090556008805480612477577f4e487b7100000000000000000000000000000000000000000000000000000000600052603160045260246000fd5b6001900381819060005260206000200160009055905550505050565b600061249e83610b18565b905081600660008573ffffffffffffffffffffffffffffffffffffffff1673ffffffffffffffffffffffffffffffffffffffff168152602001908152602001600020600083815260200190815260200160002081905550806007600084815260200190815260200160002081905550505050565b600061252561252084612fc0565b612f9b565b90508281526020810184848401111561253d57600080fd5b61254884828561319c565b509392505050565b60008135905061255f816138d0565b92915050565b600081359050612574816138e7565b92915050565b600081359050612589816138fe565b92915050565b60008151905061259e816138fe565b92915050565b600082601f8301126125b557600080fd5b81356125c5848260208601612512565b91505092915050565b6000813590506125dd81613915565b92915050565b6000602082840312156125f557600080fd5b600061260384828501612550565b91505092915050565b6000806040838503121561261f57600080fd5b600061262d85828601612550565b925050602061263e85828601612550565b9150509250929050565b60008060006060848603121561265d57600080fd5b600061266b86828701612550565b935050602061267c86828701612550565b925050604061268d868287016125ce565b9150509250925092565b600080600080608085870312156126ad57600080fd5b60006126bb87828801612550565b94505060206126cc87828801612550565b93505060406126dd878288016125ce565b925050606085013567ffffffffffffffff8111156126fa57600080fd5b612706878288016125a4565b91505092959194509250565b6000806040838503121561272557600080fd5b600061273385828601612550565b925050602061274485828601612565565b9150509250929050565b6000806040838503121561276157600080fd5b600061276f85828601612550565b9250506020612780858286016125ce565b9150509250929050565b60006020828403121561279c57600080fd5b60006127aa8482850161257a565b91505092915050565b6000602082840312156127c557600080fd5b60006127d38482850161258f565b91505092915050565b6000602082840312156127ee57600080fd5b60006127fc848285016125ce565b91505092915050565b60006128118383612bf8565b60208301905092915050565b61282681613128565b82525050565b600061283782613001565b612841818561302f565b935061284c83612ff1565b8060005b8381101561287d5781516128648882612805565b975061286f83613022565b925050600181019050612850565b5085935050505092915050565b6128938161313a565b82525050565b60006128a48261300c565b6128ae8185613040565b93506128be8185602086016131ab565b6128c781613377565b840191505092915050565b60006128dd82613017565b6128e78185613051565b93506128f78185602086016131ab565b61290081613377565b840191505092915050565b600061291682613017565b6129208185613062565b93506129308185602086016131ab565b80840191505092915050565b6000612949601483613051565b915061295482613388565b602082019050919050565b600061296c602b83613051565b9150612977826133b1565b604082019050919050565b600061298f603283613051565b915061299a82613400565b604082019050919050565b60006129b2602683613051565b91506129bd8261344f565b604082019050919050565b60006129d5602583613051565b91506129e08261349e565b604082019050919050565b60006129f8601c83613051565b9150612a03826134ed565b602082019050919050565b6000612a1b602483613051565b9150612a2682613516565b604082019050919050565b6000612a3e601983613051565b9150612a4982613565565b602082019050919050565b6000612a61602c83613051565b9150612a6c8261358e565b604082019050919050565b6000612a84601083613051565b9150612a8f826135dd565b602082019050919050565b6000612aa7603883613051565b9150612ab282613606565b604082019050919050565b6000612aca602a83613051565b9150612ad582613655565b604082019050919050565b6000612aed602983613051565b9150612af8826136a4565b604082019050919050565b6000612b10602083613051565b9150612b1b826136f3565b602082019050919050565b6000612b33602c83613051565b9150612b3e8261371c565b604082019050919050565b6000612b56602083613051565b9150612b618261376b565b602082019050919050565b6000612b79602f83613051565b9150612b8482613794565b604082019050919050565b6000612b9c602183613051565b9150612ba7826137e3565b604082019050919050565b6000612bbf603183613051565b9150612bca82613832565b604082019050919050565b6000612be2602c83613051565b9150612bed82613881565b604082019050919050565b612c0181613192565b82525050565b612c1081613192565b82525050565b6000612c22828561290b565b9150612c2e828461290b565b91508190509392505050565b6000602082019050612c4f600083018461281d565b92915050565b6000608082019050612c6a600083018761281d565b612c77602083018661281d565b612c846040830185612c07565b8181036060830152612c968184612899565b905095945050505050565b60006020820190508181036000830152612cbb818461282c565b905092915050565b6000602082019050612cd8600083018461288a565b92915050565b60006020820190508181036000830152612cf881846128d2565b905092915050565b60006020820190508181036000830152612d198161293c565b9050919050565b60006020820190508181036000830152612d398161295f565b9050919050565b60006020820190508181036000830152612d5981612982565b9050919050565b60006020820190508181036000830152612d79816129a5565b9050919050565b60006020820190508181036000830152612d99816129c8565b9050919050565b60006020820190508181036000830152612db9816129eb565b9050919050565b60006020820190508181036000830152612dd981612a0e565b9050919050565b60006020820190508181036000830152612df981612a31565b9050919050565b60006020820190508181036000830152612e1981612a54565b9050919050565b60006020820190508181036000830152612e3981612a77565b9050919050565b60006020820190508181036000830152612e5981612a9a565b9050919050565b60006020820190508181036000830152612e7981612abd565b9050919050565b60006020820190508181036000830152612e9981612ae0565b9050919050565b60006020820190508181036000830152612eb981612b03565b9050919050565b60006020820190508181036000830152612ed981612b26565b9050919050565b60006020820190508181036000830152612ef981612b49565b9050919050565b60006020820190508181036000830152612f1981612b6c565b9050919050565b60006020820190508181036000830152612f3981612b8f565b9050919050565b60006020820190508181036000830152612f5981612bb2565b9050919050565b60006020820190508181036000830152612f7981612bd5565b9050919050565b6000602082019050612f956000830184612c07565b92915050565b6000612fa5612fb6565b9050612fb18282613210565b919050565b6000604051905090565b600067ffffffffffffffff821115612fdb57612fda613348565b5b612fe482613377565b9050602081019050919050565b6000819050602082019050919050565b600081519050919050565b600081519050919050565b600081519050919050565b6000602082019050919050565b600082825260208201905092915050565b600082825260208201905092915050565b600082825260208201905092915050565b600081905092915050565b600061307882613192565b915061308383613192565b9250827fffffffffffffffffffffffffffffffffffffffffffffffffffffffffffffffff038211156130b8576130b76132bb565b5b828201905092915050565b60006130ce82613192565b91506130d983613192565b9250826130e9576130e86132ea565b5b828204905092915050565b60006130ff82613192565b915061310a83613192565b92508282101561311d5761311c6132bb565b5b828203905092915050565b600061313382613172565b9050919050565b60008115159050919050565b60007fffffffff0000000000000000000000000000000000000000000000000000000082169050919050565b600073ffffffffffffffffffffffffffffffffffffffff82169050919050565b6000819050919050565b82818337600083830152505050565b60005b838110156131c95780820151818401526020810190506131ae565b838111156131d8576000848401525b50505050565b600060028204905060018216806131f657607f821691505b6020821081141561320a57613209613319565b5b50919050565b61321982613377565b810181811067ffffffffffffffff8211171561323857613237613348565b5b80604052505050565b600061324c82613192565b91507fffffffffffffffffffffffffffffffffffffffffffffffffffffffffffffffff82141561327f5761327e6132bb565b5b600182019050919050565b600061329582613192565b91506132a083613192565b9250826132b0576132af6132ea565b5b828206905092915050565b7f4e487b7100000000000000000000000000000000000000000000000000000000600052601160045260246000fd5b7f4e487b7100000000000000000000000000000000000000000000000000000000600052601260045260246000fd5b7f4e487b7100000000000000000000000000000000000000000000000000000000600052602260045260246000fd5b7f4e487b7100000000000000000000000000000000000000000000000000000000600052604160045260246000fd5b6000601f19601f8301169050919050565b7f5061757361626c653a206e6f7420706175736564000000000000000000000000600082015250565b7f455243373231456e756d657261626c653a206f776e657220696e646578206f7560008201527f74206f6620626f756e6473000000000000000000000000000000000000000000602082015250565b7f4552433732313a207472616e7366657220746f206e6f6e20455243373231526560008201527f63656976657220696d706c656d656e7465720000000000000000000000000000602082015250565b7f4f776e61626c653a206e6577206f776e657220697320746865207a65726f206160008201527f6464726573730000000000000000000000000000000000000000000000000000602082015250565b7f4552433732313a207472616e736665722066726f6d20696e636f72726563742060008201527f6f776e6572000000000000000000000000000000000000000000000000000000602082015250565b7f4552433732313a20746f6b656e20616c7265616479206d696e74656400000000600082015250565b7f4552433732313a207472616e7366657220746f20746865207a65726f2061646460008201527f7265737300000000000000000000000000000000000000000000000000000000602082015250565b7f4552433732313a20617070726f766520746f2063616c6c657200000000000000600082015250565b7f4552433732313a206f70657261746f7220717565727920666f72206e6f6e657860008201527f697374656e7420746f6b656e0000000000000000000000000000000000000000602082015250565b7f5061757361626c653a2070617573656400000000000000000000000000000000600082015250565b7f4552433732313a20617070726f76652063616c6c6572206973206e6f74206f7760008201527f6e6572206e6f7220617070726f76656420666f7220616c6c0000000000000000602082015250565b7f4552433732313a2062616c616e636520717565727920666f7220746865207a6560008201527f726f206164647265737300000000000000000000000000000000000000000000602082015250565b7f4552433732313a206f776e657220717565727920666f72206e6f6e657869737460008201527f656e7420746f6b656e0000000000000000000000000000000000000000000000602082015250565b7f4552433732313a206d696e7420746f20746865207a65726f2061646472657373600082015250565b7f4552433732313a20617070726f76656420717565727920666f72206e6f6e657860008201527f697374656e7420746f6b656e0000000000000000000000000000000000000000602082015250565b7f4f776e61626c653a2063616c6c6572206973206e6f7420746865206f776e6572600082015250565b7f4552433732314d657461646174613a2055524920717565727920666f72206e6f60008201527f6e6578697374656e7420746f6b656e0000000000000000000000000000000000602082015250565b7f4552433732313a20617070726f76616c20746f2063757272656e74206f776e6560008201527f7200000000000000000000000000000000000000000000000000000000000000602082015250565b7f4552433732313a207472616e736665722063616c6c6572206973206e6f74206f60008201527f776e6572206e6f7220617070726f766564000000000000000000000000000000602082015250565b7f455243373231456e756d657261626c653a20676c6f62616c20696e646578206f60008201527f7574206f6620626f756e64730000000000000000000000000000000000000000602082015250565b6138d981613128565b81146138e457600080fd5b50565b6138f08161313a565b81146138fb57600080fd5b50565b61390781613146565b811461391257600080fd5b50565b61391e81613192565b811461392957600080fd5b5056fea2646970667358221220b876cef4030fdfb8d3c501c7a9e305b6ed9410c092c8a9ed35db09f85ec13b0064736f6c63430008040033",
  "linkReferences": {},
  "deployedLinkReferences": {}
}